{
  "contractName": "insurance",
  "abi": [
    {
      "inputs": [
        {
          "internalType": "string",
          "name": "uri",
          "type": "string"
        }
      ],
      "stateMutability": "payable",
      "type": "constructor",
      "payable": true
    },
    {
      "anonymous": false,
      "inputs": [
        {
          "indexed": true,
          "internalType": "address",
          "name": "account",
          "type": "address"
        },
        {
          "indexed": true,
          "internalType": "address",
          "name": "operator",
          "type": "address"
        },
        {
          "indexed": false,
          "internalType": "bool",
          "name": "approved",
          "type": "bool"
        }
      ],
      "name": "ApprovalForAll",
      "type": "event"
    },
    {
      "anonymous": false,
      "inputs": [
        {
          "indexed": true,
          "internalType": "address",
          "name": "operator",
          "type": "address"
        },
        {
          "indexed": true,
          "internalType": "address",
          "name": "from",
          "type": "address"
        },
        {
          "indexed": true,
          "internalType": "address",
          "name": "to",
          "type": "address"
        },
        {
          "indexed": false,
          "internalType": "uint256[]",
          "name": "ids",
          "type": "uint256[]"
        },
        {
          "indexed": false,
          "internalType": "uint256[]",
          "name": "values",
          "type": "uint256[]"
        }
      ],
      "name": "TransferBatch",
      "type": "event"
    },
    {
      "anonymous": false,
      "inputs": [
        {
          "indexed": true,
          "internalType": "address",
          "name": "operator",
          "type": "address"
        },
        {
          "indexed": true,
          "internalType": "address",
          "name": "from",
          "type": "address"
        },
        {
          "indexed": true,
          "internalType": "address",
          "name": "to",
          "type": "address"
        },
        {
          "indexed": false,
          "internalType": "uint256",
          "name": "id",
          "type": "uint256"
        },
        {
          "indexed": false,
          "internalType": "uint256",
          "name": "value",
          "type": "uint256"
        }
      ],
      "name": "TransferSingle",
      "type": "event"
    },
    {
      "anonymous": false,
      "inputs": [
        {
          "indexed": false,
          "internalType": "string",
          "name": "value",
          "type": "string"
        },
        {
          "indexed": true,
          "internalType": "uint256",
          "name": "id",
          "type": "uint256"
        }
      ],
      "name": "URI",
      "type": "event"
    },
    {
      "anonymous": false,
      "inputs": [
        {
          "indexed": true,
          "internalType": "address",
          "name": "owner",
          "type": "address"
        },
        {
          "indexed": true,
          "internalType": "address",
          "name": "spender",
          "type": "address"
        },
        {
          "indexed": false,
          "internalType": "uint256",
          "name": "value",
          "type": "uint256"
        }
      ],
      "name": "approveclaimevent",
      "type": "event"
    },
    {
      "inputs": [],
      "name": "PriceInEth",
      "outputs": [
        {
          "internalType": "uint256",
          "name": "",
          "type": "uint256"
        }
      ],
      "stateMutability": "view",
      "type": "function",
      "constant": true
    },
    {
      "inputs": [],
      "name": "_itemsSold",
      "outputs": [
        {
          "internalType": "uint256",
          "name": "_value",
          "type": "uint256"
        }
      ],
      "stateMutability": "view",
      "type": "function",
      "constant": true
    },
    {
      "inputs": [
        {
          "internalType": "address",
          "name": "account",
          "type": "address"
        },
        {
          "internalType": "uint256",
          "name": "id",
          "type": "uint256"
        }
      ],
      "name": "balanceOf",
      "outputs": [
        {
          "internalType": "uint256",
          "name": "",
          "type": "uint256"
        }
      ],
      "stateMutability": "view",
      "type": "function",
      "constant": true
    },
    {
      "inputs": [
        {
          "internalType": "address[]",
          "name": "accounts",
          "type": "address[]"
        },
        {
          "internalType": "uint256[]",
          "name": "ids",
          "type": "uint256[]"
        }
      ],
      "name": "balanceOfBatch",
      "outputs": [
        {
          "internalType": "uint256[]",
          "name": "",
          "type": "uint256[]"
        }
      ],
      "stateMutability": "view",
      "type": "function",
      "constant": true
    },
    {
      "inputs": [],
      "name": "baseURI",
      "outputs": [
        {
          "internalType": "string",
          "name": "",
          "type": "string"
        }
      ],
      "stateMutability": "view",
      "type": "function",
      "constant": true
    },
    {
      "inputs": [
        {
          "internalType": "uint256",
          "name": "",
          "type": "uint256"
        }
      ],
      "name": "bulk_address",
      "outputs": [
        {
          "internalType": "address",
          "name": "",
          "type": "address"
        }
      ],
      "stateMutability": "view",
      "type": "function",
      "constant": true
    },
    {
      "inputs": [
        {
          "internalType": "uint256",
          "name": "",
          "type": "uint256"
        }
      ],
      "name": "bulk_ipfs",
      "outputs": [
        {
          "internalType": "string",
          "name": "",
          "type": "string"
        }
      ],
      "stateMutability": "view",
      "type": "function",
      "constant": true
    },
    {
      "inputs": [
        {
          "internalType": "address",
          "name": "",
          "type": "address"
        }
      ],
      "name": "ipfsusers",
      "outputs": [
        {
          "internalType": "string",
          "name": "",
          "type": "string"
        }
      ],
      "stateMutability": "view",
      "type": "function",
      "constant": true
    },
    {
      "inputs": [
        {
          "internalType": "address",
          "name": "account",
          "type": "address"
        },
        {
          "internalType": "address",
          "name": "operator",
          "type": "address"
        }
      ],
      "name": "isApprovedForAll",
      "outputs": [
        {
          "internalType": "bool",
          "name": "",
          "type": "bool"
        }
      ],
      "stateMutability": "view",
      "type": "function",
      "constant": true
    },
    {
      "inputs": [],
      "name": "name",
      "outputs": [
        {
          "internalType": "string",
          "name": "",
          "type": "string"
        }
      ],
      "stateMutability": "view",
      "type": "function",
      "constant": true
    },
    {
      "inputs": [],
      "name": "remaingtoken",
      "outputs": [
        {
          "internalType": "uint256",
          "name": "",
          "type": "uint256"
        }
      ],
      "stateMutability": "view",
      "type": "function",
      "constant": true
    },
    {
      "inputs": [
        {
          "internalType": "uint256",
          "name": "",
          "type": "uint256"
        }
      ],
      "name": "req_address",
      "outputs": [
        {
          "internalType": "address",
          "name": "",
          "type": "address"
        }
      ],
      "stateMutability": "view",
      "type": "function",
      "constant": true
    },
    {
      "inputs": [],
      "name": "revealed",
      "outputs": [
        {
          "internalType": "bool",
          "name": "",
          "type": "bool"
        }
      ],
      "stateMutability": "view",
      "type": "function",
      "constant": true
    },
    {
      "inputs": [
        {
          "internalType": "address",
          "name": "from",
          "type": "address"
        },
        {
          "internalType": "address",
          "name": "to",
          "type": "address"
        },
        {
          "internalType": "uint256[]",
          "name": "ids",
          "type": "uint256[]"
        },
        {
          "internalType": "uint256[]",
          "name": "amounts",
          "type": "uint256[]"
        },
        {
          "internalType": "bytes",
          "name": "data",
          "type": "bytes"
        }
      ],
      "name": "safeBatchTransferFrom",
      "outputs": [],
      "stateMutability": "nonpayable",
      "type": "function"
    },
    {
      "inputs": [
        {
          "internalType": "address",
          "name": "from",
          "type": "address"
        },
        {
          "internalType": "address",
          "name": "to",
          "type": "address"
        },
        {
          "internalType": "uint256",
          "name": "id",
          "type": "uint256"
        },
        {
          "internalType": "uint256",
          "name": "amount",
          "type": "uint256"
        },
        {
          "internalType": "bytes",
          "name": "data",
          "type": "bytes"
        }
      ],
      "name": "safeTransferFrom",
      "outputs": [],
      "stateMutability": "nonpayable",
      "type": "function"
    },
    {
      "inputs": [],
      "name": "saleClose",
      "outputs": [
        {
          "internalType": "uint256",
          "name": "",
          "type": "uint256"
        }
      ],
      "stateMutability": "view",
      "type": "function",
      "constant": true
    },
    {
      "inputs": [
        {
          "internalType": "address",
          "name": "operator",
          "type": "address"
        },
        {
          "internalType": "bool",
          "name": "approved",
          "type": "bool"
        }
      ],
      "name": "setApprovalForAll",
      "outputs": [],
      "stateMutability": "nonpayable",
      "type": "function"
    },
    {
      "inputs": [
        {
          "internalType": "bytes4",
          "name": "interfaceId",
          "type": "bytes4"
        }
      ],
      "name": "supportsInterface",
      "outputs": [
        {
          "internalType": "bool",
          "name": "",
          "type": "bool"
        }
      ],
      "stateMutability": "view",
      "type": "function",
      "constant": true
    },
    {
      "inputs": [],
      "name": "symbol",
      "outputs": [
        {
          "internalType": "string",
          "name": "",
          "type": "string"
        }
      ],
      "stateMutability": "view",
      "type": "function",
      "constant": true
    },
    {
      "inputs": [],
      "name": "totalSupply",
      "outputs": [
        {
          "internalType": "uint256",
          "name": "",
          "type": "uint256"
        }
      ],
      "stateMutability": "view",
      "type": "function",
      "constant": true
    },
    {
      "inputs": [
        {
          "internalType": "uint256",
          "name": "",
          "type": "uint256"
        }
      ],
      "name": "uri",
      "outputs": [
        {
          "internalType": "string",
          "name": "",
          "type": "string"
        }
      ],
      "stateMutability": "view",
      "type": "function",
      "constant": true
    },
    {
      "inputs": [
        {
          "internalType": "address",
          "name": "",
          "type": "address"
        }
      ],
      "name": "userAddress",
      "outputs": [
        {
          "internalType": "bool",
          "name": "",
          "type": "bool"
        }
      ],
      "stateMutability": "view",
      "type": "function",
      "constant": true
    },
    {
      "inputs": [
        {
          "internalType": "uint256",
          "name": "tkid",
          "type": "uint256"
        },
        {
          "internalType": "uint256",
          "name": "amt",
          "type": "uint256"
        },
        {
          "internalType": "address",
          "name": "user",
          "type": "address"
        }
      ],
      "name": "mint",
      "outputs": [],
      "stateMutability": "payable",
      "type": "function",
      "payable": true
    },
    {
      "inputs": [
        {
          "internalType": "bytes",
          "name": "data",
          "type": "bytes"
        }
      ],
      "name": "decode",
      "outputs": [
        {
          "internalType": "uint256",
          "name": "tkid",
          "type": "uint256"
        },
        {
          "internalType": "uint256",
          "name": "amt",
          "type": "uint256"
        },
        {
          "internalType": "address",
          "name": "user",
          "type": "address"
        },
        {
          "internalType": "bool",
          "name": "isminted",
          "type": "bool"
        }
      ],
      "stateMutability": "nonpayable",
      "type": "function"
    },
    {
      "inputs": [
        {
          "internalType": "string",
          "name": "uploadFile",
          "type": "string"
        }
      ],
      "name": "claim",
      "outputs": [],
      "stateMutability": "nonpayable",
      "type": "function"
    },
    {
      "inputs": [
        {
          "internalType": "address payable",
          "name": "userads",
          "type": "address"
        },
        {
          "internalType": "uint256",
          "name": "cash",
          "type": "uint256"
        }
      ],
      "name": "amtto_user",
      "outputs": [
        {
          "internalType": "bool",
          "name": "",
          "type": "bool"
        }
      ],
      "stateMutability": "nonpayable",
      "type": "function"
    },
    {
      "inputs": [],
      "name": "getReqClaims",
      "outputs": [
        {
          "internalType": "address[]",
          "name": "",
          "type": "address[]"
        },
        {
          "internalType": "string[]",
          "name": "",
          "type": "string[]"
        }
      ],
      "stateMutability": "view",
      "type": "function",
      "constant": true
    },
    {
      "inputs": [
        {
          "internalType": "string",
          "name": "baseURI_",
          "type": "string"
        }
      ],
      "name": "changeBaseURI",
      "outputs": [],
      "stateMutability": "nonpayable",
      "type": "function"
    },
    {
      "inputs": [
        {
          "internalType": "bool",
          "name": "_revealed",
          "type": "bool"
        }
      ],
      "name": "changeRevealed",
      "outputs": [],
      "stateMutability": "nonpayable",
      "type": "function"
    },
    {
      "inputs": [
        {
          "internalType": "uint256",
          "name": "tokenId",
          "type": "uint256"
        }
      ],
      "name": "tokenURI",
      "outputs": [
        {
          "internalType": "string",
          "name": "",
          "type": "string"
        }
      ],
      "stateMutability": "view",
      "type": "function",
      "constant": true
    },
    {
      "inputs": [],
      "name": "getUnsolded",
      "outputs": [
        {
          "internalType": "uint256",
          "name": "",
          "type": "uint256"
        }
      ],
      "stateMutability": "view",
      "type": "function",
      "constant": true
    },
    {
      "inputs": [],
      "name": "getBalance",
      "outputs": [
        {
          "internalType": "uint256",
          "name": "",
          "type": "uint256"
        }
      ],
      "stateMutability": "view",
      "type": "function",
      "constant": true
    },
    {
      "inputs": [],
      "name": "withdrawMoney",
      "outputs": [],
      "stateMutability": "nonpayable",
      "type": "function"
    }
  ],
  "bytecode": "0x60806040526000600460006101000a81548160ff0219169083151502179055506040518060400160405280601481526020017f697066733a2f2f5448495349535448454349442f000000000000000000000000815250600590805190602001906200006c92919062000148565b5060006006556040518060600160405280600060ff168152602001600060ff168152602001600060ff168152506007906003620000ab929190620001d9565b5060405162004ac738038062004ac78339818101604052810190620000d19190620003ec565b80620000e3816200012c60201b60201c565b5033600b60006101000a81548173ffffffffffffffffffffffffffffffffffffffff021916908373ffffffffffffffffffffffffffffffffffffffff16021790555050620004a2565b80600290805190602001906200014492919062000148565b5050565b82805462000156906200046c565b90600052602060002090601f0160209004810192826200017a5760008555620001c6565b82601f106200019557805160ff1916838001178555620001c6565b82800160010185558215620001c6579182015b82811115620001c5578251825591602001919060010190620001a8565b5b509050620001d5919062000230565b5090565b8280548282559060005260206000209081019282156200021d579160200282015b828111156200021c578251829060ff16905591602001919060010190620001fa565b5b5090506200022c919062000230565b5090565b5b808211156200024b57600081600090555060010162000231565b5090565b6000604051905090565b600080fd5b600080fd5b600080fd5b600080fd5b6000601f19601f8301169050919050565b7f4e487b7100000000000000000000000000000000000000000000000000000000600052604160045260246000fd5b620002b8826200026d565b810181811067ffffffffffffffff82111715620002da57620002d96200027e565b5b80604052505050565b6000620002ef6200024f565b9050620002fd8282620002ad565b919050565b600067ffffffffffffffff82111562000320576200031f6200027e565b5b6200032b826200026d565b9050602081019050919050565b60005b83811015620003585780820151818401526020810190506200033b565b8381111562000368576000848401525b50505050565b6000620003856200037f8462000302565b620002e3565b905082815260208101848484011115620003a457620003a362000268565b5b620003b184828562000338565b509392505050565b600082601f830112620003d157620003d062000263565b5b8151620003e38482602086016200036e565b91505092915050565b60006020828403121562000405576200040462000259565b5b600082015167ffffffffffffffff8111156200042657620004256200025e565b5b6200043484828501620003b9565b91505092915050565b7f4e487b7100000000000000000000000000000000000000000000000000000000600052602260045260246000fd5b600060028204905060018216806200048557607f821691505b602082108114156200049c576200049b6200043d565b5b50919050565b61461580620004b26000396000f3fe6080604052600436106101ec5760003560e01c806387506a0d1161010d578063c87b56dd116100a0578063e5c5e9a31161006f578063e5c5e9a314610750578063e7d3fe6b14610790578063e985e9c5146107ac578063f242432a146107e9578063f3fe12c914610812576101ec565b8063c87b56dd14610694578063cf3604dc146106d1578063d0de1ad6146106fa578063d6207c4214610725576101ec565b8063ac446002116100dc578063ac446002146105c6578063b7056fd9146105dd578063bbbc2d9e1461061a578063bc10d27714610657576101ec565b806387506a0d1461050a57806395d89b41146105355780639ec55fc214610560578063a22cb4651461059d576101ec565b80632eb2c2d6116101855780634e1273f4116101545780634e1273f41461044c57806351830227146104895780635df6d940146104b45780636c0360eb146104df576101ec565b80632eb2c2d614610380578063360500cc146103a957806339a0c6f9146103e6578063459fa8231461040f576101ec565b80630a11a370116101c15780630a11a370146102c15780630e89341c146102ed57806312065fe01461032a57806318160ddd14610355576101ec565b8062411745146101f1578062fdd58e1461021c57806301ffc9a71461025957806306fdde0314610296575b600080fd5b3480156101fd57600080fd5b5061020661083b565b6040516102139190612ad9565b60405180910390f35b34801561022857600080fd5b50610243600480360381019061023e9190612b92565b610847565b6040516102509190612ad9565b60405180910390f35b34801561026557600080fd5b50610280600480360381019061027b9190612c2a565b610910565b60405161028d9190612c72565b60405180910390f35b3480156102a257600080fd5b506102ab6109f2565b6040516102b89190612d26565b60405180910390f35b3480156102cd57600080fd5b506102d6610a2b565b6040516102e4929190612f12565b60405180910390f35b3480156102f957600080fd5b50610314600480360381019061030f9190612f49565b610cb7565b6040516103219190612d26565b60405180910390f35b34801561033657600080fd5b5061033f610d4b565b60405161034c9190612ad9565b60405180910390f35b34801561036157600080fd5b5061036a610d53565b6040516103779190612ad9565b60405180910390f35b34801561038c57600080fd5b506103a760048036038101906103a29190613173565b610d59565b005b3480156103b557600080fd5b506103d060048036038101906103cb9190613242565b610dfa565b6040516103dd9190612c72565b60405180910390f35b3480156103f257600080fd5b5061040d60048036038101906104089190613310565b610e1a565b005b34801561041b57600080fd5b5061043660048036038101906104319190613397565b610e34565b6040516104439190612c72565b60405180910390f35b34801561045857600080fd5b50610473600480360381019061046e919061349a565b610eec565b60405161048091906135d0565b60405180910390f35b34801561049557600080fd5b5061049e611005565b6040516104ab9190612c72565b60405180910390f35b3480156104c057600080fd5b506104c9611018565b6040516104d69190612ad9565b60405180910390f35b3480156104eb57600080fd5b506104f461101e565b6040516105019190612d26565b60405180910390f35b34801561051657600080fd5b5061051f6110ac565b60405161052c9190612ad9565b60405180910390f35b34801561054157600080fd5b5061054a6110b8565b6040516105579190612d26565b60405180910390f35b34801561056c57600080fd5b5061058760048036038101906105829190612f49565b6110f1565b6040516105949190612d26565b60405180910390f35b3480156105a957600080fd5b506105c460048036038101906105bf919061361e565b61119d565b005b3480156105d257600080fd5b506105db6111b3565b005b3480156105e957600080fd5b5061060460048036038101906105ff9190612f49565b61124b565b604051610611919061366d565b60405180910390f35b34801561062657600080fd5b50610641600480360381019061063c9190612f49565b61128a565b60405161064e919061366d565b60405180910390f35b34801561066357600080fd5b5061067e60048036038101906106799190613242565b6112c9565b60405161068b9190612d26565b60405180910390f35b3480156106a057600080fd5b506106bb60048036038101906106b69190612f49565b611369565b6040516106c89190612d26565b60405180910390f35b3480156106dd57600080fd5b506106f860048036038101906106f39190613688565b611406565b005b34801561070657600080fd5b5061070f611423565b60405161071c9190612ad9565b60405180910390f35b34801561073157600080fd5b5061073a61142d565b6040516107479190612ad9565b60405180910390f35b34801561075c57600080fd5b5061077760048036038101906107729190613710565b611433565b604051610787949392919061375d565b60405180910390f35b6107aa60048036038101906107a591906137a2565b61151c565b005b3480156107b857600080fd5b506107d360048036038101906107ce91906137f5565b6117cb565b6040516107e09190612c72565b60405180910390f35b3480156107f557600080fd5b50610810600480360381019061080b9190613835565b61185f565b005b34801561081e57600080fd5b5061083960048036038101906108349190613310565b611900565b005b670de0b6b3a764000081565b60008073ffffffffffffffffffffffffffffffffffffffff168373ffffffffffffffffffffffffffffffffffffffff1614156108b8576040517f08c379a00000000000000000000000000000000000000000000000000000000081526004016108af9061393e565b60405180910390fd5b60008083815260200190815260200160002060008473ffffffffffffffffffffffffffffffffffffffff1673ffffffffffffffffffffffffffffffffffffffff16815260200190815260200160002054905092915050565b60007fd9b67a26000000000000000000000000000000000000000000000000000000007bffffffffffffffffffffffffffffffffffffffffffffffffffffffff1916827bffffffffffffffffffffffffffffffffffffffffffffffffffffffff191614806109db57507f0e89341c000000000000000000000000000000000000000000000000000000007bffffffffffffffffffffffffffffffffffffffffffffffffffffffff1916827bffffffffffffffffffffffffffffffffffffffffffffffffffffffff1916145b806109eb57506109ea82611a53565b5b9050919050565b6040518060400160405280600c81526020017f4e4654494e535552414e4345000000000000000000000000000000000000000081525081565b6060806000600c8054905067ffffffffffffffff811115610a4f57610a4e612f7b565b5b604051908082528060200260200182016040528015610a7d5781602001602082028036833780820191505090505b5090506000600c8054905067ffffffffffffffff811115610aa157610aa0612f7b565b5b604051908082528060200260200182016040528015610ad457816020015b6060815260200190600190039081610abf5790505b50905060005b600c80549050811015610caa57600c8181548110610afb57610afa61395e565b5b9060005260206000200160009054906101000a900473ffffffffffffffffffffffffffffffffffffffff16838281518110610b3957610b3861395e565b5b602002602001019073ffffffffffffffffffffffffffffffffffffffff16908173ffffffffffffffffffffffffffffffffffffffff168152505060116000600c8381548110610b8b57610b8a61395e565b5b9060005260206000200160009054906101000a900473ffffffffffffffffffffffffffffffffffffffff1673ffffffffffffffffffffffffffffffffffffffff1673ffffffffffffffffffffffffffffffffffffffff1681526020019081526020016000208054610bfb906139bc565b80601f0160208091040260200160405190810160405280929190818152602001828054610c27906139bc565b8015610c745780601f10610c4957610100808354040283529160200191610c74565b820191906000526020600020905b815481529060010190602001808311610c5757829003601f168201915b5050505050828281518110610c8c57610c8b61395e565b5b60200260200101819052508080610ca290613a1d565b915050610ada565b5081819350935050509091565b606060028054610cc6906139bc565b80601f0160208091040260200160405190810160405280929190818152602001828054610cf2906139bc565b8015610d3f5780601f10610d1457610100808354040283529160200191610d3f565b820191906000526020600020905b815481529060010190602001808311610d2257829003601f168201915b50505050509050919050565b600047905090565b60065481565b610d61611abd565b73ffffffffffffffffffffffffffffffffffffffff168573ffffffffffffffffffffffffffffffffffffffff161480610da75750610da685610da1611abd565b6117cb565b5b610de6576040517f08c379a0000000000000000000000000000000000000000000000000000000008152600401610ddd90613ad8565b60405180910390fd5b610df38585858585611ac5565b5050505050565b60106020528060005260406000206000915054906101000a900460ff1681565b8060059080519060200190610e30929190612a1d565b5050565b60008273ffffffffffffffffffffffffffffffffffffffff166108fc839081150290604051600060405180830381858888f19350505050158015610e7c573d6000803e3d6000fd5b508273ffffffffffffffffffffffffffffffffffffffff163373ffffffffffffffffffffffffffffffffffffffff167ffa1fc4b9d9ad208e76817d7be42a352a25a02b3a5f1e5567d61ff40d463453eb84604051610eda9190612ad9565b60405180910390a36001905092915050565b60608151835114610f32576040517f08c379a0000000000000000000000000000000000000000000000000000000008152600401610f2990613b6a565b60405180910390fd5b6000835167ffffffffffffffff811115610f4f57610f4e612f7b565b5b604051908082528060200260200182016040528015610f7d5781602001602082028036833780820191505090505b50905060005b8451811015610ffa57610fca858281518110610fa257610fa161395e565b5b6020026020010151858381518110610fbd57610fbc61395e565b5b6020026020010151610847565b828281518110610fdd57610fdc61395e565b5b60200260200101818152505080610ff390613a1d565b9050610f83565b508091505092915050565b600460009054906101000a900460ff1681565b60085481565b6005805461102b906139bc565b80601f0160208091040260200160405190810160405280929190818152602001828054611057906139bc565b80156110a45780601f10611079576101008083540402835291602001916110a4565b820191906000526020600020905b81548152906001019060200180831161108757829003601f168201915b505050505081565b60038060000154905081565b6040518060400160405280600381526020017f4e4654000000000000000000000000000000000000000000000000000000000081525081565b600e818154811061110157600080fd5b90600052602060002001600091509050805461111c906139bc565b80601f0160208091040260200160405190810160405280929190818152602001828054611148906139bc565b80156111955780601f1061116a57610100808354040283529160200191611195565b820191906000526020600020905b81548152906001019060200180831161117857829003601f168201915b505050505081565b6111af6111a8611abd565b8383611de7565b5050565b6000479050600081116111fb576040517f08c379a00000000000000000000000000000000000000000000000000000000081526004016111f290613bd6565b60405180910390fd5b60003390508073ffffffffffffffffffffffffffffffffffffffff166108fc839081150290604051600060405180830381858888f19350505050158015611246573d6000803e3d6000fd5b505050565b600d818154811061125b57600080fd5b906000526020600020016000915054906101000a900473ffffffffffffffffffffffffffffffffffffffff1681565b600c818154811061129a57600080fd5b906000526020600020016000915054906101000a900473ffffffffffffffffffffffffffffffffffffffff1681565b601160205280600052604060002060009150905080546112e8906139bc565b80601f0160208091040260200160405190810160405280929190818152602001828054611314906139bc565b80156113615780601f1061133657610100808354040283529160200191611361565b820191906000526020600020905b81548152906001019060200180831161134457829003601f168201915b505050505081565b60606000611375611f54565b9050600460009054906101000a900460ff16156113dd5760008151116113aa57604051806020016040528060008152506113d5565b806113b484611fe6565b6040516020016113c5929190613c7e565b6040516020818303038152906040525b915050611401565b806040516020016113ee9190613cf9565b6040516020818303038152906040529150505b919050565b80600460006101000a81548160ff02191690831515021790555050565b6000600854905090565b60095481565b60008060008085858101906114489190613d1b565b80945081955082965083975050505050600d829080600181540180825580915050600190039060005260206000200160009091909190916101000a81548173ffffffffffffffffffffffffffffffffffffffff021916908373ffffffffffffffffffffffffffffffffffffffff1602179055506001601060008473ffffffffffffffffffffffffffffffffffffffff1673ffffffffffffffffffffffffffffffffffffffff16815260200190815260200160002060006101000a81548160ff02191690831515021790555092959194509250565b61153782670de0b6b3a764000061214790919063ffffffff16565b3414611578576040517f08c379a000000000000000000000000000000000000000000000000000000000815260040161156f90613dce565b60405180910390fd5b33905060405180608001604052808481526020018381526020018273ffffffffffffffffffffffffffffffffffffffff16815260200160011515815250600f60008373ffffffffffffffffffffffffffffffffffffffff1673ffffffffffffffffffffffffffffffffffffffff168152602001908152602001600020600082015181600001556020820151816001015560408201518160020160006101000a81548173ffffffffffffffffffffffffffffffffffffffff021916908373ffffffffffffffffffffffffffffffffffffffff16021790555060608201518160020160146101000a81548160ff021916908315150217905550905050600060405180608001604052808581526020018481526020018373ffffffffffffffffffffffffffffffffffffffff16815260200160011515815250905060006001856116bf9190613dee565b90506116dc3386866040518060200160405280600081525061215d565b83600782815481106116f1576116f061395e565b5b90600052602060002001600082825461170a9190613e22565b92505081905550600a829080600181540180825580915050600190039060005260206000209060030201600090919091909150600082015181600001556020820151816001015560408201518160020160006101000a81548173ffffffffffffffffffffffffffffffffffffffff021916908373ffffffffffffffffffffffffffffffffffffffff16021790555060608201518160020160146101000a81548160ff02191690831515021790555050506117c4600361230e565b5050505050565b6000600160008473ffffffffffffffffffffffffffffffffffffffff1673ffffffffffffffffffffffffffffffffffffffff16815260200190815260200160002060008373ffffffffffffffffffffffffffffffffffffffff1673ffffffffffffffffffffffffffffffffffffffff16815260200190815260200160002060009054906101000a900460ff16905092915050565b611867611abd565b73ffffffffffffffffffffffffffffffffffffffff168573ffffffffffffffffffffffffffffffffffffffff1614806118ad57506118ac856118a7611abd565b6117cb565b5b6118ec576040517f08c379a00000000000000000000000000000000000000000000000000000000081526004016118e390613ad8565b60405180910390fd5b6118f98585858585612324565b5050505050565b6001601060003373ffffffffffffffffffffffffffffffffffffffff1673ffffffffffffffffffffffffffffffffffffffff16815260200190815260200160002060006101000a81548160ff021916908315150217905515611a505780601160003373ffffffffffffffffffffffffffffffffffffffff1673ffffffffffffffffffffffffffffffffffffffff16815260200190815260200160002090805190602001906119af929190612a1d565b50600e819080600181540180825580915050600190039060005260206000200160009091909190915090805190602001906119eb929190612a1d565b50600c339080600181540180825580915050600190039060005260206000200160009091909190916101000a81548173ffffffffffffffffffffffffffffffffffffffff021916908373ffffffffffffffffffffffffffffffffffffffff1602179055505b50565b60007f01ffc9a7000000000000000000000000000000000000000000000000000000007bffffffffffffffffffffffffffffffffffffffffffffffffffffffff1916827bffffffffffffffffffffffffffffffffffffffffffffffffffffffff1916149050919050565b600033905090565b8151835114611b09576040517f08c379a0000000000000000000000000000000000000000000000000000000008152600401611b0090613eea565b60405180910390fd5b600073ffffffffffffffffffffffffffffffffffffffff168473ffffffffffffffffffffffffffffffffffffffff161415611b79576040517f08c379a0000000000000000000000000000000000000000000000000000000008152600401611b7090613f7c565b60405180910390fd5b6000611b83611abd565b9050611b938187878787876125c0565b60005b8451811015611d44576000858281518110611bb457611bb361395e565b5b602002602001015190506000858381518110611bd357611bd261395e565b5b60200260200101519050600080600084815260200190815260200160002060008b73ffffffffffffffffffffffffffffffffffffffff1673ffffffffffffffffffffffffffffffffffffffff16815260200190815260200160002054905081811015611c74576040517f08c379a0000000000000000000000000000000000000000000000000000000008152600401611c6b9061400e565b60405180910390fd5b81810360008085815260200190815260200160002060008c73ffffffffffffffffffffffffffffffffffffffff1673ffffffffffffffffffffffffffffffffffffffff168152602001908152602001600020819055508160008085815260200190815260200160002060008b73ffffffffffffffffffffffffffffffffffffffff1673ffffffffffffffffffffffffffffffffffffffff1681526020019081526020016000206000828254611d299190613e22565b9250508190555050505080611d3d90613a1d565b9050611b96565b508473ffffffffffffffffffffffffffffffffffffffff168673ffffffffffffffffffffffffffffffffffffffff168273ffffffffffffffffffffffffffffffffffffffff167f4a39dc06d4c0dbc64b70af90fd698a233a518aa5d07e595d983b8c0526c8f7fb8787604051611dbb92919061402e565b60405180910390a4611dd18187878787876125c8565b611ddf8187878787876125d0565b505050505050565b8173ffffffffffffffffffffffffffffffffffffffff168373ffffffffffffffffffffffffffffffffffffffff161415611e56576040517f08c379a0000000000000000000000000000000000000000000000000000000008152600401611e4d906140d7565b60405180910390fd5b80600160008573ffffffffffffffffffffffffffffffffffffffff1673ffffffffffffffffffffffffffffffffffffffff16815260200190815260200160002060008473ffffffffffffffffffffffffffffffffffffffff1673ffffffffffffffffffffffffffffffffffffffff16815260200190815260200160002060006101000a81548160ff0219169083151502179055508173ffffffffffffffffffffffffffffffffffffffff168373ffffffffffffffffffffffffffffffffffffffff167f17307eab39ab6107e8899845ad3d59bd9653f200f220920489ca2b5937696c3183604051611f479190612c72565b60405180910390a3505050565b606060058054611f63906139bc565b80601f0160208091040260200160405190810160405280929190818152602001828054611f8f906139bc565b8015611fdc5780601f10611fb157610100808354040283529160200191611fdc565b820191906000526020600020905b815481529060010190602001808311611fbf57829003601f168201915b5050505050905090565b6060600082141561202e576040518060400160405280600181526020017f30000000000000000000000000000000000000000000000000000000000000008152509050612142565b600082905060005b6000821461206057808061204990613a1d565b915050600a826120599190614126565b9150612036565b60008167ffffffffffffffff81111561207c5761207b612f7b565b5b6040519080825280601f01601f1916602001820160405280156120ae5781602001600182028036833780820191505090505b5090505b6000851461213b576001826120c79190613dee565b9150600a856120d69190614157565b60306120e29190613e22565b60f81b8183815181106120f8576120f761395e565b5b60200101907effffffffffffffffffffffffffffffffffffffffffffffffffffffffffffff1916908160001a905350600a856121349190614126565b94506120b2565b8093505050505b919050565b600081836121559190614188565b905092915050565b600073ffffffffffffffffffffffffffffffffffffffff168473ffffffffffffffffffffffffffffffffffffffff1614156121cd576040517f08c379a00000000000000000000000000000000000000000000000000000000081526004016121c490614254565b60405180910390fd5b60006121d7611abd565b905060006121e4856127a8565b905060006121f1856127a8565b9050612202836000898585896125c0565b8460008088815260200190815260200160002060008973ffffffffffffffffffffffffffffffffffffffff1673ffffffffffffffffffffffffffffffffffffffff16815260200190815260200160002060008282546122619190613e22565b925050819055508673ffffffffffffffffffffffffffffffffffffffff16600073ffffffffffffffffffffffffffffffffffffffff168473ffffffffffffffffffffffffffffffffffffffff167fc3d58168c5ae7397731d063d5bbf3d657854427343f4c083240f7aacaa2d0f6289896040516122df929190614274565b60405180910390a46122f6836000898585896125c8565b61230583600089898989612822565b50505050505050565b6001816000016000828254019250508190555050565b600073ffffffffffffffffffffffffffffffffffffffff168473ffffffffffffffffffffffffffffffffffffffff161415612394576040517f08c379a000000000000000000000000000000000000000000000000000000000815260040161238b90613f7c565b60405180910390fd5b600061239e611abd565b905060006123ab856127a8565b905060006123b8856127a8565b90506123c88389898585896125c0565b600080600088815260200190815260200160002060008a73ffffffffffffffffffffffffffffffffffffffff1673ffffffffffffffffffffffffffffffffffffffff1681526020019081526020016000205490508581101561245f576040517f08c379a00000000000000000000000000000000000000000000000000000000081526004016124569061400e565b60405180910390fd5b85810360008089815260200190815260200160002060008b73ffffffffffffffffffffffffffffffffffffffff1673ffffffffffffffffffffffffffffffffffffffff168152602001908152602001600020819055508560008089815260200190815260200160002060008a73ffffffffffffffffffffffffffffffffffffffff1673ffffffffffffffffffffffffffffffffffffffff16815260200190815260200160002060008282546125149190613e22565b925050819055508773ffffffffffffffffffffffffffffffffffffffff168973ffffffffffffffffffffffffffffffffffffffff168573ffffffffffffffffffffffffffffffffffffffff167fc3d58168c5ae7397731d063d5bbf3d657854427343f4c083240f7aacaa2d0f628a8a604051612591929190614274565b60405180910390a46125a7848a8a86868a6125c8565b6125b5848a8a8a8a8a612822565b505050505050505050565b505050505050565b505050505050565b6125ef8473ffffffffffffffffffffffffffffffffffffffff166129fa565b156127a0578373ffffffffffffffffffffffffffffffffffffffff1663bc197c8187878686866040518663ffffffff1660e01b81526004016126359594939291906142f2565b6020604051808303816000875af192505050801561267157506040513d601f19601f8201168201806040525081019061266e919061436f565b60015b6127175761267d6143a9565b806308c379a014156126da57506126926143cb565b8061269d57506126dc565b806040517f08c379a00000000000000000000000000000000000000000000000000000000081526004016126d19190612d26565b60405180910390fd5b505b6040517f08c379a000000000000000000000000000000000000000000000000000000000815260040161270e906144d3565b60405180910390fd5b63bc197c8160e01b7bffffffffffffffffffffffffffffffffffffffffffffffffffffffff1916817bffffffffffffffffffffffffffffffffffffffffffffffffffffffff19161461279e576040517f08c379a000000000000000000000000000000000000000000000000000000000815260040161279590614565565b60405180910390fd5b505b505050505050565b60606000600167ffffffffffffffff8111156127c7576127c6612f7b565b5b6040519080825280602002602001820160405280156127f55781602001602082028036833780820191505090505b509050828160008151811061280d5761280c61395e565b5b60200260200101818152505080915050919050565b6128418473ffffffffffffffffffffffffffffffffffffffff166129fa565b156129f2578373ffffffffffffffffffffffffffffffffffffffff1663f23a6e6187878686866040518663ffffffff1660e01b8152600401612887959493929190614585565b6020604051808303816000875af19250505080156128c357506040513d601f19601f820116820180604052508101906128c0919061436f565b60015b612969576128cf6143a9565b806308c379a0141561292c57506128e46143cb565b806128ef575061292e565b806040517f08c379a00000000000000000000000000000000000000000000000000000000081526004016129239190612d26565b60405180910390fd5b505b6040517f08c379a0000000000000000000000000000000000000000000000000000000008152600401612960906144d3565b60405180910390fd5b63f23a6e6160e01b7bffffffffffffffffffffffffffffffffffffffffffffffffffffffff1916817bffffffffffffffffffffffffffffffffffffffffffffffffffffffff1916146129f0576040517f08c379a00000000000000000000000000000000000000000000000000000000081526004016129e790614565565b60405180910390fd5b505b505050505050565b6000808273ffffffffffffffffffffffffffffffffffffffff163b119050919050565b828054612a29906139bc565b90600052602060002090601f016020900481019282612a4b5760008555612a92565b82601f10612a6457805160ff1916838001178555612a92565b82800160010185558215612a92579182015b82811115612a91578251825591602001919060010190612a76565b5b509050612a9f9190612aa3565b5090565b5b80821115612abc576000816000905550600101612aa4565b5090565b6000819050919050565b612ad381612ac0565b82525050565b6000602082019050612aee6000830184612aca565b92915050565b6000604051905090565b600080fd5b600080fd5b600073ffffffffffffffffffffffffffffffffffffffff82169050919050565b6000612b3382612b08565b9050919050565b612b4381612b28565b8114612b4e57600080fd5b50565b600081359050612b6081612b3a565b92915050565b612b6f81612ac0565b8114612b7a57600080fd5b50565b600081359050612b8c81612b66565b92915050565b60008060408385031215612ba957612ba8612afe565b5b6000612bb785828601612b51565b9250506020612bc885828601612b7d565b9150509250929050565b60007fffffffff0000000000000000000000000000000000000000000000000000000082169050919050565b612c0781612bd2565b8114612c1257600080fd5b50565b600081359050612c2481612bfe565b92915050565b600060208284031215612c4057612c3f612afe565b5b6000612c4e84828501612c15565b91505092915050565b60008115159050919050565b612c6c81612c57565b82525050565b6000602082019050612c876000830184612c63565b92915050565b600081519050919050565b600082825260208201905092915050565b60005b83811015612cc7578082015181840152602081019050612cac565b83811115612cd6576000848401525b50505050565b6000601f19601f8301169050919050565b6000612cf882612c8d565b612d028185612c98565b9350612d12818560208601612ca9565b612d1b81612cdc565b840191505092915050565b60006020820190508181036000830152612d408184612ced565b905092915050565b600081519050919050565b600082825260208201905092915050565b6000819050602082019050919050565b612d7d81612b28565b82525050565b6000612d8f8383612d74565b60208301905092915050565b6000602082019050919050565b6000612db382612d48565b612dbd8185612d53565b9350612dc883612d64565b8060005b83811015612df9578151612de08882612d83565b9750612deb83612d9b565b925050600181019050612dcc565b5085935050505092915050565b600081519050919050565b600082825260208201905092915050565b6000819050602082019050919050565b600082825260208201905092915050565b6000612e4e82612c8d565b612e588185612e32565b9350612e68818560208601612ca9565b612e7181612cdc565b840191505092915050565b6000612e888383612e43565b905092915050565b6000602082019050919050565b6000612ea882612e06565b612eb28185612e11565b935083602082028501612ec485612e22565b8060005b85811015612f005784840389528151612ee18582612e7c565b9450612eec83612e90565b925060208a01995050600181019050612ec8565b50829750879550505050505092915050565b60006040820190508181036000830152612f2c8185612da8565b90508181036020830152612f408184612e9d565b90509392505050565b600060208284031215612f5f57612f5e612afe565b5b6000612f6d84828501612b7d565b91505092915050565b600080fd5b7f4e487b7100000000000000000000000000000000000000000000000000000000600052604160045260246000fd5b612fb382612cdc565b810181811067ffffffffffffffff82111715612fd257612fd1612f7b565b5b80604052505050565b6000612fe5612af4565b9050612ff18282612faa565b919050565b600067ffffffffffffffff82111561301157613010612f7b565b5b602082029050602081019050919050565b600080fd5b600061303a61303584612ff6565b612fdb565b9050808382526020820190506020840283018581111561305d5761305c613022565b5b835b8181101561308657806130728882612b7d565b84526020840193505060208101905061305f565b5050509392505050565b600082601f8301126130a5576130a4612f76565b5b81356130b5848260208601613027565b91505092915050565b600080fd5b600067ffffffffffffffff8211156130de576130dd612f7b565b5b6130e782612cdc565b9050602081019050919050565b82818337600083830152505050565b6000613116613111846130c3565b612fdb565b905082815260208101848484011115613132576131316130be565b5b61313d8482856130f4565b509392505050565b600082601f83011261315a57613159612f76565b5b813561316a848260208601613103565b91505092915050565b600080600080600060a0868803121561318f5761318e612afe565b5b600061319d88828901612b51565b95505060206131ae88828901612b51565b945050604086013567ffffffffffffffff8111156131cf576131ce612b03565b5b6131db88828901613090565b935050606086013567ffffffffffffffff8111156131fc576131fb612b03565b5b61320888828901613090565b925050608086013567ffffffffffffffff81111561322957613228612b03565b5b61323588828901613145565b9150509295509295909350565b60006020828403121561325857613257612afe565b5b600061326684828501612b51565b91505092915050565b600067ffffffffffffffff82111561328a57613289612f7b565b5b61329382612cdc565b9050602081019050919050565b60006132b36132ae8461326f565b612fdb565b9050828152602081018484840111156132cf576132ce6130be565b5b6132da8482856130f4565b509392505050565b600082601f8301126132f7576132f6612f76565b5b81356133078482602086016132a0565b91505092915050565b60006020828403121561332657613325612afe565b5b600082013567ffffffffffffffff81111561334457613343612b03565b5b613350848285016132e2565b91505092915050565b600061336482612b08565b9050919050565b61337481613359565b811461337f57600080fd5b50565b6000813590506133918161336b565b92915050565b600080604083850312156133ae576133ad612afe565b5b60006133bc85828601613382565b92505060206133cd85828601612b7d565b9150509250929050565b600067ffffffffffffffff8211156133f2576133f1612f7b565b5b602082029050602081019050919050565b6000613416613411846133d7565b612fdb565b9050808382526020820190506020840283018581111561343957613438613022565b5b835b81811015613462578061344e8882612b51565b84526020840193505060208101905061343b565b5050509392505050565b600082601f83011261348157613480612f76565b5b8135613491848260208601613403565b91505092915050565b600080604083850312156134b1576134b0612afe565b5b600083013567ffffffffffffffff8111156134cf576134ce612b03565b5b6134db8582860161346c565b925050602083013567ffffffffffffffff8111156134fc576134fb612b03565b5b61350885828601613090565b9150509250929050565b600081519050919050565b600082825260208201905092915050565b6000819050602082019050919050565b61354781612ac0565b82525050565b6000613559838361353e565b60208301905092915050565b6000602082019050919050565b600061357d82613512565b613587818561351d565b93506135928361352e565b8060005b838110156135c35781516135aa888261354d565b97506135b583613565565b925050600181019050613596565b5085935050505092915050565b600060208201905081810360008301526135ea8184613572565b905092915050565b6135fb81612c57565b811461360657600080fd5b50565b600081359050613618816135f2565b92915050565b6000806040838503121561363557613634612afe565b5b600061364385828601612b51565b925050602061365485828601613609565b9150509250929050565b61366781612b28565b82525050565b6000602082019050613682600083018461365e565b92915050565b60006020828403121561369e5761369d612afe565b5b60006136ac84828501613609565b91505092915050565b600080fd5b60008083601f8401126136d0576136cf612f76565b5b8235905067ffffffffffffffff8111156136ed576136ec6136b5565b5b60208301915083600182028301111561370957613708613022565b5b9250929050565b6000806020838503121561372757613726612afe565b5b600083013567ffffffffffffffff81111561374557613744612b03565b5b613751858286016136ba565b92509250509250929050565b60006080820190506137726000830187612aca565b61377f6020830186612aca565b61378c604083018561365e565b6137996060830184612c63565b95945050505050565b6000806000606084860312156137bb576137ba612afe565b5b60006137c986828701612b7d565b93505060206137da86828701612b7d565b92505060406137eb86828701612b51565b9150509250925092565b6000806040838503121561380c5761380b612afe565b5b600061381a85828601612b51565b925050602061382b85828601612b51565b9150509250929050565b600080600080600060a0868803121561385157613850612afe565b5b600061385f88828901612b51565b955050602061387088828901612b51565b945050604061388188828901612b7d565b935050606061389288828901612b7d565b925050608086013567ffffffffffffffff8111156138b3576138b2612b03565b5b6138bf88828901613145565b9150509295509295909350565b7f455243313135353a2061646472657373207a65726f206973206e6f742061207660008201527f616c6964206f776e657200000000000000000000000000000000000000000000602082015250565b6000613928602a83612c98565b9150613933826138cc565b604082019050919050565b600060208201905081810360008301526139578161391b565b9050919050565b7f4e487b7100000000000000000000000000000000000000000000000000000000600052603260045260246000fd5b7f4e487b7100000000000000000000000000000000000000000000000000000000600052602260045260246000fd5b600060028204905060018216806139d457607f821691505b602082108114156139e8576139e761398d565b5b50919050565b7f4e487b7100000000000000000000000000000000000000000000000000000000600052601160045260246000fd5b6000613a2882612ac0565b91507fffffffffffffffffffffffffffffffffffffffffffffffffffffffffffffffff821415613a5b57613a5a6139ee565b5b600182019050919050565b7f455243313135353a2063616c6c6572206973206e6f7420746f6b656e206f776e60008201527f6572206e6f7220617070726f7665640000000000000000000000000000000000602082015250565b6000613ac2602f83612c98565b9150613acd82613a66565b604082019050919050565b60006020820190508181036000830152613af181613ab5565b9050919050565b7f455243313135353a206163636f756e747320616e6420696473206c656e67746860008201527f206d69736d617463680000000000000000000000000000000000000000000000602082015250565b6000613b54602983612c98565b9150613b5f82613af8565b604082019050919050565b60006020820190508181036000830152613b8381613b47565b9050919050565b7f6e6f74206861766520656e6f7567682062616c616e6365000000000000000000600082015250565b6000613bc0601783612c98565b9150613bcb82613b8a565b602082019050919050565b60006020820190508181036000830152613bef81613bb3565b9050919050565b600081905092915050565b6000613c0c82612c8d565b613c168185613bf6565b9350613c26818560208601612ca9565b80840191505092915050565b7f2e6a736f6e000000000000000000000000000000000000000000000000000000600082015250565b6000613c68600583613bf6565b9150613c7382613c32565b600582019050919050565b6000613c8a8285613c01565b9150613c968284613c01565b9150613ca182613c5b565b91508190509392505050565b7f68696464656e2e6a736f6e000000000000000000000000000000000000000000600082015250565b6000613ce3600b83613bf6565b9150613cee82613cad565b600b82019050919050565b6000613d058284613c01565b9150613d1082613cd6565b915081905092915050565b60008060008060808587031215613d3557613d34612afe565b5b6000613d4387828801612b7d565b9450506020613d5487828801612b7d565b9350506040613d6587828801613382565b9250506060613d7687828801613609565b91505092959194509250565b7f4e6f74206861766520656e6f7567682065746865720000000000000000000000600082015250565b6000613db8601583612c98565b9150613dc382613d82565b602082019050919050565b60006020820190508181036000830152613de781613dab565b9050919050565b6000613df982612ac0565b9150613e0483612ac0565b925082821015613e1757613e166139ee565b5b828203905092915050565b6000613e2d82612ac0565b9150613e3883612ac0565b9250827fffffffffffffffffffffffffffffffffffffffffffffffffffffffffffffffff03821115613e6d57613e6c6139ee565b5b828201905092915050565b7f455243313135353a2069647320616e6420616d6f756e7473206c656e6774682060008201527f6d69736d61746368000000000000000000000000000000000000000000000000602082015250565b6000613ed4602883612c98565b9150613edf82613e78565b604082019050919050565b60006020820190508181036000830152613f0381613ec7565b9050919050565b7f455243313135353a207472616e7366657220746f20746865207a65726f20616460008201527f6472657373000000000000000000000000000000000000000000000000000000602082015250565b6000613f66602583612c98565b9150613f7182613f0a565b604082019050919050565b60006020820190508181036000830152613f9581613f59565b9050919050565b7f455243313135353a20696e73756666696369656e742062616c616e636520666f60008201527f72207472616e7366657200000000000000000000000000000000000000000000602082015250565b6000613ff8602a83612c98565b915061400382613f9c565b604082019050919050565b6000602082019050818103600083015261402781613feb565b9050919050565b600060408201905081810360008301526140488185613572565b9050818103602083015261405c8184613572565b90509392505050565b7f455243313135353a2073657474696e6720617070726f76616c2073746174757360008201527f20666f722073656c660000000000000000000000000000000000000000000000602082015250565b60006140c1602983612c98565b91506140cc82614065565b604082019050919050565b600060208201905081810360008301526140f0816140b4565b9050919050565b7f4e487b7100000000000000000000000000000000000000000000000000000000600052601260045260246000fd5b600061413182612ac0565b915061413c83612ac0565b92508261414c5761414b6140f7565b5b828204905092915050565b600061416282612ac0565b915061416d83612ac0565b92508261417d5761417c6140f7565b5b828206905092915050565b600061419382612ac0565b915061419e83612ac0565b9250817fffffffffffffffffffffffffffffffffffffffffffffffffffffffffffffffff04831182151516156141d7576141d66139ee565b5b828202905092915050565b7f455243313135353a206d696e7420746f20746865207a65726f2061646472657360008201527f7300000000000000000000000000000000000000000000000000000000000000602082015250565b600061423e602183612c98565b9150614249826141e2565b604082019050919050565b6000602082019050818103600083015261426d81614231565b9050919050565b60006040820190506142896000830185612aca565b6142966020830184612aca565b9392505050565b600081519050919050565b600082825260208201905092915050565b60006142c48261429d565b6142ce81856142a8565b93506142de818560208601612ca9565b6142e781612cdc565b840191505092915050565b600060a082019050614307600083018861365e565b614314602083018761365e565b81810360408301526143268186613572565b9050818103606083015261433a8185613572565b9050818103608083015261434e81846142b9565b90509695505050505050565b60008151905061436981612bfe565b92915050565b60006020828403121561438557614384612afe565b5b60006143938482850161435a565b91505092915050565b60008160e01c9050919050565b600060033d11156143c85760046000803e6143c560005161439c565b90505b90565b600060443d10156143db5761445e565b6143e3612af4565b60043d036004823e80513d602482011167ffffffffffffffff8211171561440b57505061445e565b808201805167ffffffffffffffff811115614429575050505061445e565b80602083010160043d03850181111561444657505050505061445e565b61445582602001850186612faa565b82955050505050505b90565b7f455243313135353a207472616e7366657220746f206e6f6e204552433131353560008201527f526563656976657220696d706c656d656e746572000000000000000000000000602082015250565b60006144bd603483612c98565b91506144c882614461565b604082019050919050565b600060208201905081810360008301526144ec816144b0565b9050919050565b7f455243313135353a204552433131353552656365697665722072656a6563746560008201527f6420746f6b656e73000000000000000000000000000000000000000000000000602082015250565b600061454f602883612c98565b915061455a826144f3565b604082019050919050565b6000602082019050818103600083015261457e81614542565b9050919050565b600060a08201905061459a600083018861365e565b6145a7602083018761365e565b6145b46040830186612aca565b6145c16060830185612aca565b81810360808301526145d381846142b9565b9050969550505050505056fea2646970667358221220cecf3fdaa04aa3473cb7d22f9a56510456faed8ec31b172b84ffa56f6b1ca00364736f6c634300080b0033",
  "immutableReferences": {},
  "source": "// SPDX-License-Identifier: MIT\npragma solidity ^0.8.2;\n\nimport \"@openzeppelin/contracts/token/ERC1155/ERC1155.sol\";\nimport \"@openzeppelin/contracts/security/ReentrancyGuard.sol\";\nimport \"@openzeppelin/contracts/utils/math/SafeMath.sol\";\nimport \"@openzeppelin/contracts/utils/Counters.sol\";\nimport \"@openzeppelin/contracts/utils/Strings.sol\";\n\nimport \"@openzeppelin/contracts/utils/cryptography/MerkleProof.sol\";\n\n\ncontract insurance is ERC1155\n{\n     using Counters for Counters.Counter;\n    Counters.Counter public _itemsSold;\n\n    using SafeMath for uint256;\n    string public constant name = \"NFTINSURANCE\";\n    string public constant symbol = \"NFT\";\n    bool   public revealed = false;\n    string public baseURI = \"ipfs://THISISTHECID/\";\n\n    uint256 public totalSupply = 0;\n    uint256 public constant PriceInEth = 1 ether;\n\n    uint256[] minted = [0, 0, 0];\n    uint256 public remaingtoken;\n    uint256 public saleClose;\n\n    struct Person \n    {\n        uint256 tkid;\n        uint256 amt;\n        address user;\n        bool exists;\n    }\n    Person[] persons;\n    address admin;\n    address[] public req_address;\n    address[] public bulk_address;\n    string [] public bulk_ipfs;\n\n\n    mapping(address => Person) mappedperson;\n    mapping(address => bool) public userAddress;\n    mapping(address => string)public ipfsusers;\n\n    modifier ownerOnly()\n    {\n        require(msg.sender == admin);\n        _;\n    }\n\n    event approveclaimevent(address indexed owner, address indexed spender, uint256 value);\n\n\n    constructor (string memory uri) payable ERC1155(uri)\n    {\n        admin = msg.sender;\n    }\n\n    function mint(uint256 tkid,uint256 amt,address user)payable public\n    {\n        require(msg.value == PriceInEth.mul(amt), \"Not have enough ether\");\n        user=msg.sender;\n\n        mappedperson[user]=Person(tkid,amt,user,true);\n        Person memory person = Person(tkid,amt,user,true);\n\n        uint256 index = tkid -1;\n        _mint(msg.sender,tkid,amt,\"\");\n        minted[index] += amt;\n        \n        persons.push(person);\n        \n        _itemsSold.increment();\n\n    }\n\n    function decode(bytes calldata data)public returns(uint256 tkid,uint256 amt,address user,bool isminted)\n    {\n        (tkid,amt,user,isminted) = abi.decode(data,(uint256,uint256,address,bool));\n        bulk_address.push(user);\n        userAddress[user]= true;\n    }\n\n    function claim(string memory uploadFile)public\n    {\n        if(userAddress[msg.sender] =true)\n        {\n        ipfsusers[msg.sender] = uploadFile;\n        bulk_ipfs.push(uploadFile);\n        req_address.push(msg.sender);\n        }\n\n    }\n    \n    function amtto_user(address payable userads, uint256 cash) public   returns (bool)\n    {\n      userads.transfer(cash);\n      emit approveclaimevent(msg.sender, userads, cash);\n      return true;\n    }\n\n    function getReqClaims()public view returns (address[] memory, string[] memory)\n    {\n      address[] memory mAddress = new address[](req_address.length);\n      string[] memory mipfs = new string[](req_address.length);\n        for (uint256 i = 0; i < req_address.length; i++) {\n            mAddress[i] = req_address[i];\n            mipfs[i] = ipfsusers[req_address[i]];\n        }\n        return (mAddress, mipfs);\n    }\n\n    function _baseURI() internal view returns (string memory)\n    {\n        return baseURI;\n    }\n\n    function changeBaseURI(string memory baseURI_) public\n    {\n        baseURI = baseURI_;\n    }\n\n    function changeRevealed(bool _revealed) public\n    {\n        revealed = _revealed;\n    }\n\n    function tokenURI(uint256 tokenId) public view returns (string memory)\n    {\n        string memory baseURI_ = _baseURI();\n\n        if (revealed) {\n            return\n                bytes(baseURI_).length > 0\n                    ? string(\n                        abi.encodePacked(\n                            baseURI_,\n                            Strings.toString(tokenId),\n                            \".json\"\n                        )\n                    )\n                    : \"\";\n        } else {\n            return string(abi.encodePacked(baseURI_, \"hidden.json\"));\n        }\n    }\n\n    function getUnsolded() external view returns (uint256)\n    {\n        return remaingtoken;\n    }\n\n    function getBalance() public view returns (uint256)\n    {\n        return address(this).balance;\n    }\n\n    function withdrawMoney() public\n    {\n        uint256 balance = address(this).balance;\n        require(balance > 0, \"not have enough balance\");\n        address payable to = payable(msg.sender);\n        to.transfer(balance);\n    }\n\n}\n\n",
  "sourcePath": "/home/nextazy/Documents/mongo-html-tutorial-master/Mainproject/Main/contracts/insurance.sol",
  "compiler": {
    "name": "solc",
    "version": "0.8.11+commit.d7f03943.Emscripten.clang"
  },
  "schemaVersion": "3.4.5",
  "updatedAt": "2022-07-19T04:37:41.671Z",
  "networkType": "ethereum",
  "devdoc": {
    "kind": "dev",
    "methods": {
      "balanceOf(address,uint256)": {
        "details": "See {IERC1155-balanceOf}. Requirements: - `account` cannot be the zero address."
      },
      "balanceOfBatch(address[],uint256[])": {
        "details": "See {IERC1155-balanceOfBatch}. Requirements: - `accounts` and `ids` must have the same length."
      },
      "isApprovedForAll(address,address)": {
        "details": "See {IERC1155-isApprovedForAll}."
      },
      "safeBatchTransferFrom(address,address,uint256[],uint256[],bytes)": {
        "details": "See {IERC1155-safeBatchTransferFrom}."
      },
      "safeTransferFrom(address,address,uint256,uint256,bytes)": {
        "details": "See {IERC1155-safeTransferFrom}."
      },
      "setApprovalForAll(address,bool)": {
        "details": "See {IERC1155-setApprovalForAll}."
      },
      "supportsInterface(bytes4)": {
        "details": "See {IERC165-supportsInterface}."
      },
      "uri(uint256)": {
        "details": "See {IERC1155MetadataURI-uri}. This implementation returns the same URI for *all* token types. It relies on the token type ID substitution mechanism https://eips.ethereum.org/EIPS/eip-1155#metadata[defined in the EIP]. Clients calling this function must replace the `\\{id\\}` substring with the actual token type ID."
      }
    },
    "version": 1
  },
  "userdoc": {
    "kind": "user",
    "methods": {},
    "version": 1
  }
}